{
  "contractName": "donor",
  "abi": [
    {
      "constant": true,
      "inputs": [
        {
          "name": "",
          "type": "address"
        }
      ],
      "name": "verify_hospital",
      "outputs": [
        {
          "name": "",
          "type": "bool"
        }
      ],
      "payable": false,
      "stateMutability": "view",
      "type": "function",
      "signature": "0xb4704784"
    },
    {
      "constant": true,
      "inputs": [
        {
          "name": "",
          "type": "uint256"
        }
      ],
      "name": "donor_details",
      "outputs": [
        {
          "name": "name",
          "type": "string"
        },
        {
          "name": "bloodg",
          "type": "string"
        },
        {
          "name": "donated_to",
          "type": "string"
        },
        {
          "name": "blood_qty",
          "type": "uint256"
        },
        {
          "name": "unique_id",
          "type": "bytes32"
        },
        {
          "name": "contact",
          "type": "uint256"
        }
      ],
      "payable": false,
      "stateMutability": "view",
      "type": "function",
      "signature": "0xe9ed0332"
    },
    {
      "constant": true,
      "inputs": [
        {
          "name": "",
          "type": "address"
        }
      ],
      "name": "hospital_details",
      "outputs": [
        {
          "name": "hname",
          "type": "string"
        },
        {
          "name": "addr",
          "type": "string"
        },
        {
          "name": "cont",
          "type": "uint256"
        }
      ],
      "payable": false,
      "stateMutability": "view",
      "type": "function",
      "signature": "0xeae471c6"
    },
    {
      "constant": false,
      "inputs": [
        {
          "name": "_name",
          "type": "string"
        },
        {
          "name": "_bloodg",
          "type": "string"
        },
        {
          "name": "_donated_to",
          "type": "string"
        },
        {
          "name": "_blood_qty",
          "type": "uint256"
        },
        {
          "name": "_contact",
          "type": "uint256"
        }
      ],
      "name": "submit",
      "outputs": [
        {
          "name": "",
          "type": "bytes32"
        }
      ],
      "payable": false,
      "stateMutability": "nonpayable",
      "type": "function",
      "signature": "0x02f5f826"
    },
    {
      "constant": true,
      "inputs": [
        {
          "name": "_name",
          "type": "string"
        },
        {
          "name": "_bloodg",
          "type": "string"
        },
        {
          "name": "_contact",
          "type": "uint256"
        }
      ],
      "name": "get_unique_id",
      "outputs": [
        {
          "name": "",
          "type": "bytes32"
        }
      ],
      "payable": false,
      "stateMutability": "pure",
      "type": "function",
      "signature": "0x302ee099"
    },
    {
      "constant": true,
      "inputs": [
        {
          "name": "_unique_id",
          "type": "bytes32"
        }
      ],
      "name": "enter_unique_id",
      "outputs": [
        {
          "name": "",
          "type": "string"
        },
        {
          "name": "",
          "type": "string"
        },
        {
          "name": "",
          "type": "string"
        },
        {
          "name": "",
          "type": "uint256"
        },
        {
          "name": "",
          "type": "bytes32"
        },
        {
          "name": "",
          "type": "uint256"
        }
      ],
      "payable": false,
      "stateMutability": "view",
      "type": "function",
      "signature": "0x9d3a3f35"
    },
    {
      "constant": true,
      "inputs": [],
      "name": "get_donors",
      "outputs": [
        {
          "name": "",
          "type": "string[]"
        },
        {
          "name": "",
          "type": "string[]"
        },
        {
          "name": "",
          "type": "uint256[]"
        }
      ],
      "payable": false,
      "stateMutability": "view",
      "type": "function",
      "signature": "0x6d8713d7"
    },
    {
      "constant": true,
      "inputs": [],
      "name": "enter_hospital",
      "outputs": [
        {
          "name": "",
          "type": "bool"
        }
      ],
      "payable": false,
      "stateMutability": "view",
      "type": "function",
      "signature": "0xc776bab5"
    },
    {
      "constant": false,
      "inputs": [
        {
          "name": "_hname",
          "type": "string"
        },
        {
          "name": "_addr",
          "type": "string"
        },
        {
          "name": "_cont",
          "type": "uint256"
        }
      ],
      "name": "set_hospital_details",
      "outputs": [],
      "payable": false,
      "stateMutability": "nonpayable",
      "type": "function",
      "signature": "0x5f1ccf5d"
    }
  ],
  "bytecode": "0x608060405234801561001057600080fd5b506119f8806100206000396000f3fe608060405260043610610099576000357c0100000000000000000000000000000000000000000000000000000000900463ffffffff16806302f5f8261461009e578063302ee099146100db5780635f1ccf5d146101185780636d8713d7146101415780639d3a3f351461016e578063b4704784146101b0578063c776bab5146101ed578063e9ed033214610218578063eae471c61461025a575b600080fd5b3480156100aa57600080fd5b506100c560048036036100c091908101906113d0565b610299565b6040516100d29190611700565b60405180910390f35b3480156100e757600080fd5b5061010260048036036100fd919081019061148f565b6104c4565b60405161010f9190611700565b60405180910390f35b34801561012457600080fd5b5061013f600480360361013a919081019061148f565b6105a5565b005b34801561014d57600080fd5b506101566107c0565b60405161016593929190611699565b60405180910390f35b34801561017a57600080fd5b50610195600480360361019091908101906113a7565b610b41565b6040516101a79695949392919061171b565b60405180910390f35b3480156101bc57600080fd5b506101d760048036036101d2919081019061137e565b610d66565b6040516101e491906116e5565b60405180910390f35b3480156101f957600080fd5b50610202610d86565b60405161020f91906116e5565b60405180910390f35b34801561022457600080fd5b5061023f600480360361023a919081019061150e565b610df7565b60405161025196959493929190611791565b60405180910390f35b34801561026657600080fd5b50610281600480360361027c919081019061137e565b61100a565b60405161029093929190611807565b60405180910390f35b60008033905060008787856040516020018084805190602001908083835b6020831015156102dc57805182526020820191506020810190506020830392506102b7565b6001836020036101000a03801982511681845116808217855250505050505090500183805190602001908083835b60208310151561032f578051825260208201915060208101905060208303925061030a565b6001836020036101000a03801982511681845116808217855250505050505090500182815260200193505050506040516020818303038152906040528051906020012090506000600360008381526020019081526020016000209050888160000190805190602001906103a3929190611164565b50878160010190805190602001906103bc929190611164565b50868160020190805190602001906103d5929190611164565b5085816003018190555084816005018190555081816004018190555060028190806001815401808255809150509060018203906000526020600020906006020160009091929091909150600082018160000190805460018160011615610100020316600290046104469291906111e4565b506001820181600101908054600181600116156101000203166002900461046e9291906111e4565b50600282018160020190805460018160011615610100020316600290046104969291906111e4565b5060038201548160030155600482015481600401556005820154816005015550505050505095945050505050565b6000808484846040516020018084805190602001908083835b60208310151561050257805182526020820191506020810190506020830392506104dd565b6001836020036101000a03801982511681845116808217855250505050505090500183805190602001908083835b6020831015156105555780518252602082019150602081019050602083039250610530565b6001836020036101000a0380198251168184511680821785525050505050509050018281526020019350505050604051602081830303815290604052805190602001209050809150509392505050565b6105ad61126b565b6000803373ffffffffffffffffffffffffffffffffffffffff1673ffffffffffffffffffffffffffffffffffffffff16815260200190815260200160002060606040519081016040529081600082018054600181600116156101000203166002900480601f0160208091040260200160405190810160405280929190818152602001828054600181600116156101000203166002900480156106905780601f1061066557610100808354040283529160200191610690565b820191906000526020600020905b81548152906001019060200180831161067357829003601f168201915b50505050508152602001600182018054600181600116156101000203166002900480601f0160208091040260200160405190810160405280929190818152602001828054600181600116156101000203166002900480156107325780601f1061070757610100808354040283529160200191610732565b820191906000526020600020905b81548152906001019060200180831161071557829003601f168201915b5050505050815260200160028201548152505090508381600001819052508281602001819052508181604001818152505060018060003373ffffffffffffffffffffffffffffffffffffffff1673ffffffffffffffffffffffffffffffffffffffff16815260200190815260200160002060006101000a81548160ff02191690831515021790555050505050565b60608060606000600280549050905060608160405190808252806020026020018201604052801561080557816020015b60608152602001906001900390816107f05790505b50905060608260405190808252806020026020018201604052801561083e57816020015b60608152602001906001900390816108295790505b5090506060836040519080825280602002602001820160405280156108725781602001602082028038833980820191505090505b50905060008090505b600280549050811015610b2e5761089061128d565b60028281548110151561089f57fe5b906000526020600020906006020160c06040519081016040529081600082018054600181600116156101000203166002900480601f0160208091040260200160405190810160405280929190818152602001828054600181600116156101000203166002900480156109525780601f1061092757610100808354040283529160200191610952565b820191906000526020600020905b81548152906001019060200180831161093557829003601f168201915b50505050508152602001600182018054600181600116156101000203166002900480601f0160208091040260200160405190810160405280929190818152602001828054600181600116156101000203166002900480156109f45780601f106109c9576101008083540402835291602001916109f4565b820191906000526020600020905b8154815290600101906020018083116109d757829003601f168201915b50505050508152602001600282018054600181600116156101000203166002900480601f016020809104026020016040519081016040528092919081815260200182805460018160011615610100020316600290048015610a965780601f10610a6b57610100808354040283529160200191610a96565b820191906000526020600020905b815481529060010190602001808311610a7957829003601f168201915b505050505081526020016003820154815260200160048201548152602001600582015481525050905080600001518583815181101515610ad257fe5b9060200190602002018190525080602001518483815181101515610af257fe5b906020019060200201819052508060a001518383815181101515610b1257fe5b906020019060200201818152505050808060010191505061087b565b5082828296509650965050505050909192565b6060806060600080600080600360008981526020019081526020016000209050806000018160010182600201836003015484600401548560050154858054600181600116156101000203166002900480601f016020809104026020016040519081016040528092919081815260200182805460018160011615610100020316600290048015610c115780601f10610be657610100808354040283529160200191610c11565b820191906000526020600020905b815481529060010190602001808311610bf457829003601f168201915b50505050509550848054600181600116156101000203166002900480601f016020809104026020016040519081016040528092919081815260200182805460018160011615610100020316600290048015610cad5780601f10610c8257610100808354040283529160200191610cad565b820191906000526020600020905b815481529060010190602001808311610c9057829003601f168201915b50505050509450838054600181600116156101000203166002900480601f016020809104026020016040519081016040528092919081815260200182805460018160011615610100020316600290048015610d495780601f10610d1e57610100808354040283529160200191610d49565b820191906000526020600020905b815481529060010190602001808311610d2c57829003601f168201915b505050505093509650965096509650965096505091939550919395565b60016020528060005260406000206000915054906101000a900460ff1681565b60008033905060011515600160003373ffffffffffffffffffffffffffffffffffffffff1673ffffffffffffffffffffffffffffffffffffffff16815260200190815260200160002060009054906101000a900460ff1615151415610dee5760019150610df3565b600091505b5090565b600281815481101515610e0657fe5b9060005260206000209060060201600091509050806000018054600181600116156101000203166002900480601f016020809104026020016040519081016040528092919081815260200182805460018160011615610100020316600290048015610eb25780601f10610e8757610100808354040283529160200191610eb2565b820191906000526020600020905b815481529060010190602001808311610e9557829003601f168201915b505050505090806001018054600181600116156101000203166002900480601f016020809104026020016040519081016040528092919081815260200182805460018160011615610100020316600290048015610f505780601f10610f2557610100808354040283529160200191610f50565b820191906000526020600020905b815481529060010190602001808311610f3357829003601f168201915b505050505090806002018054600181600116156101000203166002900480601f016020809104026020016040519081016040528092919081815260200182805460018160011615610100020316600290048015610fee5780601f10610fc357610100808354040283529160200191610fee565b820191906000526020600020905b815481529060010190602001808311610fd157829003601f168201915b5050505050908060030154908060040154908060050154905086565b6000602052806000526040600020600091509050806000018054600181600116156101000203166002900480601f0160208091040260200160405190810160405280929190818152602001828054600181600116156101000203166002900480156110b65780601f1061108b576101008083540402835291602001916110b6565b820191906000526020600020905b81548152906001019060200180831161109957829003601f168201915b505050505090806001018054600181600116156101000203166002900480601f0160208091040260200160405190810160405280929190818152602001828054600181600116156101000203166002900480156111545780601f1061112957610100808354040283529160200191611154565b820191906000526020600020905b81548152906001019060200180831161113757829003601f168201915b5050505050908060020154905083565b828054600181600116156101000203166002900490600052602060002090601f016020900481019282601f106111a557805160ff19168380011785556111d3565b828001600101855582156111d3579182015b828111156111d25782518255916020019190600101906111b7565b5b5090506111e091906112c7565b5090565b828054600181600116156101000203166002900490600052602060002090601f016020900481019282601f1061121d578054855561125a565b8280016001018555821561125a57600052602060002091601f016020900482015b8281111561125957825482559160010191906001019061123e565b5b50905061126791906112c7565b5090565b6060604051908101604052806060815260200160608152602001600081525090565b60c0604051908101604052806060815260200160608152602001606081526020016000815260200160008019168152602001600081525090565b6112e991905b808211156112e55760008160009055506001016112cd565b5090565b90565b60006112f88235611945565b905092915050565b600061130c8235611957565b905092915050565b600082601f830112151561132757600080fd5b813561133a61133582611879565b61184c565b9150808252602083016020830185838301111561135657600080fd5b61136183828461196b565b50505092915050565b60006113768235611961565b905092915050565b60006020828403121561139057600080fd5b600061139e848285016112ec565b91505092915050565b6000602082840312156113b957600080fd5b60006113c784828501611300565b91505092915050565b600080600080600060a086880312156113e857600080fd5b600086013567ffffffffffffffff81111561140257600080fd5b61140e88828901611314565b955050602086013567ffffffffffffffff81111561142b57600080fd5b61143788828901611314565b945050604086013567ffffffffffffffff81111561145457600080fd5b61146088828901611314565b93505060606114718882890161136a565b92505060806114828882890161136a565b9150509295509295909350565b6000806000606084860312156114a457600080fd5b600084013567ffffffffffffffff8111156114be57600080fd5b6114ca86828701611314565b935050602084013567ffffffffffffffff8111156114e757600080fd5b6114f386828701611314565b92505060406115048682870161136a565b9150509250925092565b60006020828403121561152057600080fd5b600061152e8482850161136a565b91505092915050565b6000611542826118bf565b8084526020840193508360208202850161155b856118a5565b60005b84811015611594578383038852611576838351611654565b9250611581826118eb565b915060208801975060018101905061155e565b508196508694505050505092915050565b60006115b0826118ca565b8084526020840193506115c2836118b2565b60005b828110156115f4576115d886835161168a565b6115e1826118f8565b91506020860195506001810190506115c5565b50849250505092915050565b61160981611905565b82525050565b61161881611911565b82525050565b6000611629826118e0565b80845261163d81602086016020860161197a565b611646816119ad565b602085010191505092915050565b600061165f826118d5565b80845261167381602086016020860161197a565b61167c816119ad565b602085010191505092915050565b6116938161193b565b82525050565b600060608201905081810360008301526116b38186611537565b905081810360208301526116c78185611537565b905081810360408301526116db81846115a5565b9050949350505050565b60006020820190506116fa6000830184611600565b92915050565b6000602082019050611715600083018461160f565b92915050565b600060c0820190508181036000830152611735818961161e565b90508181036020830152611749818861161e565b9050818103604083015261175d818761161e565b905061176c606083018661168a565b611779608083018561160f565b61178660a083018461168a565b979650505050505050565b600060c08201905081810360008301526117ab8189611654565b905081810360208301526117bf8188611654565b905081810360408301526117d38187611654565b90506117e2606083018661168a565b6117ef608083018561160f565b6117fc60a083018461168a565b979650505050505050565b600060608201905081810360008301526118218186611654565b905081810360208301526118358185611654565b9050611844604083018461168a565b949350505050565b6000604051905081810181811067ffffffffffffffff8211171561186f57600080fd5b8060405250919050565b600067ffffffffffffffff82111561189057600080fd5b601f19601f8301169050602081019050919050565b6000602082019050919050565b6000602082019050919050565b600081519050919050565b600081519050919050565b600081519050919050565b600081519050919050565b6000602082019050919050565b6000602082019050919050565b60008115159050919050565b6000819050919050565b600073ffffffffffffffffffffffffffffffffffffffff82169050919050565b6000819050919050565b60006119508261191b565b9050919050565b6000819050919050565b6000819050919050565b82818337600083830152505050565b60005b8381101561199857808201518184015260208101905061197d565b838111156119a7576000848401525b50505050565b6000601f19601f830116905091905056fea265627a7a72305820091898da0ff0c57272e148e923bfc3a29b4823917cfa151e69918cf86e7d22536c6578706572696d656e74616cf50037",
  "source": "\n\npragma solidity ^0.5.0;\npragma experimental ABIEncoderV2;\n\ncontract donor{\n    struct donor_detail{\n        string name;\n        string bloodg;\n        string donated_to;\n        uint blood_qty;\n        bytes32 unique_id;\n        uint contact;\n    }\n    struct hospital_detail{\n        string hname;\n        string addr;\n        uint cont;\n    }\n    mapping(address=>hospital_detail) public hospital_details;\n    mapping(address=>bool) public verify_hospital;\n    donor_detail[] public donor_details;\n    modifier onlyOwner(){\n        address _customerAddress = msg.sender;\n    _;\n    }\n    mapping(bytes32 => donor_detail) id_donor_detail;\n    function submit (string memory _name,string memory _bloodg, string memory _donated_to, uint _blood_qty,uint _contact) onlyOwner()  public returns(bytes32){\n        \n        bytes32 unique_id=keccak256(abi.encodePacked(_name,_bloodg,_contact));\n        donor_detail storage set_donor= id_donor_detail[unique_id];\n        set_donor.name =_name;\n        set_donor.bloodg= _bloodg;\n        set_donor.donated_to= _donated_to;\n        set_donor.blood_qty=_blood_qty;\n        set_donor.contact= _contact;\n        set_donor.unique_id=unique_id;\n        donor_details.push(set_donor);\n    } \n    function get_unique_id(string memory _name,string memory _bloodg,uint _contact) pure public returns(bytes32){\n        bytes32 unique_id=keccak256(abi.encodePacked(_name,_bloodg,_contact));\n        return unique_id;\n    }\n  \n    function enter_unique_id(bytes32 _unique_id)  view public returns(string memory , string memory, string memory,uint, bytes32, uint){\n        donor_detail storage donor_d = id_donor_detail[_unique_id];\n        return (donor_d.name, donor_d.bloodg, donor_d.donated_to, donor_d.blood_qty, donor_d.unique_id, donor_d.contact);\n    }\n    function get_donors() view public returns(string[] memory,string[] memory,uint[] memory){\n\n       uint length = donor_details.length;\n    \n        string[] memory name = new string[](length);\n        string[] memory bloodg = new string[](length);\n        uint[] memory contact = new uint[](length);\n    \n    for (uint i = 0; i < donor_details.length; i++) {\n        donor_detail memory showDonor;\n        showDonor = donor_details[i];\n        \n        name[i] = showDonor.name;\n        bloodg[i] = showDonor.bloodg;\n        contact[i] = showDonor.contact;\n    }\n    return(name,bloodg,contact);\n       \n       \n       \n    }\n    function enter_hospital() onlyOwner view public returns(bool){\n        if(verify_hospital[msg.sender]==true)\n        return true;\n        else\n        return false;\n    }\n    function set_hospital_details(string memory _hname,string memory _addr,uint _cont)  public{\n        hospital_detail memory hospital_d = hospital_details[msg.sender];\n        hospital_d.hname=_hname;\n        hospital_d.addr=_addr;\n        hospital_d.cont=_cont;\n        verify_hospital[msg.sender]=true;\n    }\n    \n}",
  "sourcePath": "/home/neeraja/Desktop/pro/blood_pool/contracts/donor.sol",
  "compiler": {
    "name": "solc",
    "version": "0.5.0+commit.1d4f565a.Emscripten.clang"
  },
  "schemaVersion": "3.0.1",
  "updatedAt": "2019-04-11T09:30:18.890Z",
  "devdoc": {
    "methods": {}
  },
  "userdoc": {
    "methods": {}
  }
}