{
  "contractName": "donor",
  "abi": [
    {
      "constant": true,
      "inputs": [
        {
          "name": "",
          "type": "address"
        }
      ],
      "name": "verify_hospital",
      "outputs": [
        {
          "name": "",
          "type": "bool"
        }
      ],
      "payable": false,
      "stateMutability": "view",
      "type": "function",
      "signature": "0xb4704784"
    },
    {
      "constant": true,
      "inputs": [
        {
          "name": "",
          "type": "uint256"
        }
      ],
      "name": "donor_details",
      "outputs": [
        {
          "name": "name",
          "type": "string"
        },
        {
          "name": "bloodg",
          "type": "string"
        },
        {
          "name": "donated_to",
          "type": "string"
        },
        {
          "name": "blood_qty",
          "type": "uint256"
        },
        {
          "name": "unique_id",
          "type": "bytes32"
        },
        {
          "name": "contact",
          "type": "uint256"
        }
      ],
      "payable": false,
      "stateMutability": "view",
      "type": "function",
      "signature": "0xe9ed0332"
    },
    {
      "constant": true,
      "inputs": [
        {
          "name": "",
          "type": "address"
        }
      ],
      "name": "hospital_details",
      "outputs": [
        {
          "name": "hname",
          "type": "string"
        },
        {
          "name": "addr",
          "type": "string"
        },
        {
          "name": "cont",
          "type": "uint256"
        }
      ],
      "payable": false,
      "stateMutability": "view",
      "type": "function",
      "signature": "0xeae471c6"
    },
    {
      "constant": false,
      "inputs": [
        {
          "name": "_name",
          "type": "string"
        },
        {
          "name": "_bloodg",
          "type": "string"
        },
        {
          "name": "_donated_to",
          "type": "string"
        },
        {
          "name": "_blood_qty",
          "type": "uint256"
        },
        {
          "name": "_contact",
          "type": "uint256"
        }
      ],
      "name": "submit",
      "outputs": [
        {
          "name": "",
          "type": "bytes32"
        }
      ],
      "payable": false,
      "stateMutability": "nonpayable",
      "type": "function",
      "signature": "0x02f5f826"
    },
    {
      "constant": true,
      "inputs": [
        {
          "name": "_name",
          "type": "string"
        },
        {
          "name": "_bloodg",
          "type": "string"
        },
        {
          "name": "_contact",
          "type": "uint256"
        }
      ],
      "name": "get_unique_id",
      "outputs": [
        {
          "name": "",
          "type": "bytes32"
        }
      ],
      "payable": false,
      "stateMutability": "pure",
      "type": "function",
      "signature": "0x302ee099"
    },
    {
      "constant": true,
      "inputs": [
        {
          "name": "_unique_id",
          "type": "bytes32"
        }
      ],
      "name": "enter_unique_id",
      "outputs": [
        {
          "name": "",
          "type": "string"
        },
        {
          "name": "",
          "type": "string"
        },
        {
          "name": "",
          "type": "string"
        },
        {
          "name": "",
          "type": "uint256"
        },
        {
          "name": "",
          "type": "bytes32"
        },
        {
          "name": "",
          "type": "uint256"
        }
      ],
      "payable": false,
      "stateMutability": "view",
      "type": "function",
      "signature": "0x9d3a3f35"
    },
    {
      "constant": true,
      "inputs": [],
      "name": "get_donors",
      "outputs": [
        {
          "name": "",
          "type": "string"
        },
        {
          "name": "",
          "type": "string"
        },
        {
          "name": "",
          "type": "uint256"
        }
      ],
      "payable": false,
      "stateMutability": "view",
      "type": "function",
      "signature": "0x6d8713d7"
    },
    {
      "constant": true,
      "inputs": [],
      "name": "enter_hospital",
      "outputs": [
        {
          "name": "",
          "type": "bool"
        }
      ],
      "payable": false,
      "stateMutability": "view",
      "type": "function",
      "signature": "0xc776bab5"
    },
    {
      "constant": false,
      "inputs": [
        {
          "name": "_hname",
          "type": "string"
        },
        {
          "name": "_addr",
          "type": "string"
        },
        {
          "name": "_cont",
          "type": "uint256"
        }
      ],
      "name": "set_hospital_details",
      "outputs": [],
      "payable": false,
      "stateMutability": "nonpayable",
      "type": "function",
      "signature": "0x5f1ccf5d"
    }
  ],
  "bytecode": "0x608060405234801561001057600080fd5b50611a43806100206000396000f3fe608060405260043610610099576000357c0100000000000000000000000000000000000000000000000000000000900463ffffffff16806302f5f8261461009e578063302ee099146102bc5780635f1ccf5d146104395780636d8713d7146105a25780639d3a3f35146106a5578063b470478414610846578063c776bab5146108af578063e9ed0332146108de578063eae471c614610a7f575b600080fd5b3480156100aa57600080fd5b506102a6600480360360a08110156100c157600080fd5b81019080803590602001906401000000008111156100de57600080fd5b8201836020820111156100f057600080fd5b8035906020019184600183028401116401000000008311171561011257600080fd5b91908080601f016020809104026020016040519081016040528093929190818152602001838380828437600081840152601f19601f8201169050808301925050505050505091929192908035906020019064010000000081111561017557600080fd5b82018360208201111561018757600080fd5b803590602001918460018302840111640100000000831117156101a957600080fd5b91908080601f016020809104026020016040519081016040528093929190818152602001838380828437600081840152601f19601f8201169050808301925050505050505091929192908035906020019064010000000081111561020c57600080fd5b82018360208201111561021e57600080fd5b8035906020019184600183028401116401000000008311171561024057600080fd5b91908080601f016020809104026020016040519081016040528093929190818152602001838380828437600081840152601f19601f8201169050808301925050505050505091929192908035906020019092919080359060200190929190505050610bbc565b6040518082815260200191505060405180910390f35b3480156102c857600080fd5b50610423600480360360608110156102df57600080fd5b81019080803590602001906401000000008111156102fc57600080fd5b82018360208201111561030e57600080fd5b8035906020019184600183028401116401000000008311171561033057600080fd5b91908080601f016020809104026020016040519081016040528093929190818152602001838380828437600081840152601f19601f8201169050808301925050505050505091929192908035906020019064010000000081111561039357600080fd5b8201836020820111156103a557600080fd5b803590602001918460018302840111640100000000831117156103c757600080fd5b91908080601f016020809104026020016040519081016040528093929190818152602001838380828437600081840152601f19601f82011690508083019250505050505050919291929080359060200190929190505050610de7565b6040518082815260200191505060405180910390f35b34801561044557600080fd5b506105a06004803603606081101561045c57600080fd5b810190808035906020019064010000000081111561047957600080fd5b82018360208201111561048b57600080fd5b803590602001918460018302840111640100000000831117156104ad57600080fd5b91908080601f016020809104026020016040519081016040528093929190818152602001838380828437600081840152601f19601f8201169050808301925050505050505091929192908035906020019064010000000081111561051057600080fd5b82018360208201111561052257600080fd5b8035906020019184600183028401116401000000008311171561054457600080fd5b91908080601f016020809104026020016040519081016040528093929190818152602001838380828437600081840152601f19601f82011690508083019250505050505050919291929080359060200190929190505050610ec8565b005b3480156105ae57600080fd5b506105b76110e3565b604051808060200180602001848152602001838103835286818151815260200191508051906020019080838360005b838110156106015780820151818401526020810190506105e6565b50505050905090810190601f16801561062e5780820380516001836020036101000a031916815260200191505b50838103825285818151815260200191508051906020019080838360005b8381101561066757808201518184015260208101905061064c565b50505050905090810190601f1680156106945780820380516001836020036101000a031916815260200191505b509550505050505060405180910390f35b3480156106b157600080fd5b506106de600480360360208110156106c857600080fd5b81019080803590602001909291905050506112a6565b6040518080602001806020018060200187815260200186815260200185815260200184810384528a818151815260200191508051906020019080838360005b8381101561073857808201518184015260208101905061071d565b50505050905090810190601f1680156107655780820380516001836020036101000a031916815260200191505b50848103835289818151815260200191508051906020019080838360005b8381101561079e578082015181840152602081019050610783565b50505050905090810190601f1680156107cb5780820380516001836020036101000a031916815260200191505b50848103825288818151815260200191508051906020019080838360005b838110156108045780820151818401526020810190506107e9565b50505050905090810190601f1680156108315780820380516001836020036101000a031916815260200191505b50995050505050505050505060405180910390f35b34801561085257600080fd5b506108956004803603602081101561086957600080fd5b81019080803573ffffffffffffffffffffffffffffffffffffffff1690602001909291905050506114cb565b604051808215151515815260200191505060405180910390f35b3480156108bb57600080fd5b506108c46114eb565b604051808215151515815260200191505060405180910390f35b3480156108ea57600080fd5b506109176004803603602081101561090157600080fd5b810190808035906020019092919050505061155c565b6040518080602001806020018060200187815260200186815260200185815260200184810384528a818151815260200191508051906020019080838360005b83811015610971578082015181840152602081019050610956565b50505050905090810190601f16801561099e5780820380516001836020036101000a031916815260200191505b50848103835289818151815260200191508051906020019080838360005b838110156109d75780820151818401526020810190506109bc565b50505050905090810190601f168015610a045780820380516001836020036101000a031916815260200191505b50848103825288818151815260200191508051906020019080838360005b83811015610a3d578082015181840152602081019050610a22565b50505050905090810190601f168015610a6a5780820380516001836020036101000a031916815260200191505b50995050505050505050505060405180910390f35b348015610a8b57600080fd5b50610ace60048036036020811015610aa257600080fd5b81019080803573ffffffffffffffffffffffffffffffffffffffff16906020019092919050505061176f565b604051808060200180602001848152602001838103835286818151815260200191508051906020019080838360005b83811015610b18578082015181840152602081019050610afd565b50505050905090810190601f168015610b455780820380516001836020036101000a031916815260200191505b50838103825285818151815260200191508051906020019080838360005b83811015610b7e578082015181840152602081019050610b63565b50505050905090810190601f168015610bab5780820380516001836020036101000a031916815260200191505b509550505050505060405180910390f35b60008033905060008787856040516020018084805190602001908083835b602083101515610bff5780518252602082019150602081019050602083039250610bda565b6001836020036101000a03801982511681845116808217855250505050505090500183805190602001908083835b602083101515610c525780518252602082019150602081019050602083039250610c2d565b6001836020036101000a0380198251168184511680821785525050505050509050018281526020019350505050604051602081830303815290604052805190602001209050600060036000838152602001908152602001600020905088816000019080519060200190610cc69291906118c9565b5087816001019080519060200190610cdf9291906118c9565b5086816002019080519060200190610cf89291906118c9565b508581600301819055508481600501819055508181600401819055506002819080600181540180825580915050906001820390600052602060002090600602016000909192909190915060008201816000019080546001816001161561010002031660029004610d69929190611949565b5060018201816001019080546001816001161561010002031660029004610d91929190611949565b5060028201816002019080546001816001161561010002031660029004610db9929190611949565b5060038201548160030155600482015481600401556005820154816005015550505050505095945050505050565b6000808484846040516020018084805190602001908083835b602083101515610e255780518252602082019150602081019050602083039250610e00565b6001836020036101000a03801982511681845116808217855250505050505090500183805190602001908083835b602083101515610e785780518252602082019150602081019050602083039250610e53565b6001836020036101000a0380198251168184511680821785525050505050509050018281526020019350505050604051602081830303815290604052805190602001209050809150509392505050565b610ed06119d0565b6000803373ffffffffffffffffffffffffffffffffffffffff1673ffffffffffffffffffffffffffffffffffffffff16815260200190815260200160002060606040519081016040529081600082018054600181600116156101000203166002900480601f016020809104026020016040519081016040528092919081815260200182805460018160011615610100020316600290048015610fb35780601f10610f8857610100808354040283529160200191610fb3565b820191906000526020600020905b815481529060010190602001808311610f9657829003601f168201915b50505050508152602001600182018054600181600116156101000203166002900480601f0160208091040260200160405190810160405280929190818152602001828054600181600116156101000203166002900480156110555780601f1061102a57610100808354040283529160200191611055565b820191906000526020600020905b81548152906001019060200180831161103857829003601f168201915b5050505050815260200160028201548152505090508381600001819052508281602001819052508181604001818152505060018060003373ffffffffffffffffffffffffffffffffffffffff1673ffffffffffffffffffffffffffffffffffffffff16815260200190815260200160002060006101000a81548160ff02191690831515021790555050505050565b6060806000806000905060028054905081101561129f5760028181548110151561110957fe5b906000526020600020906006020160000160028281548110151561112957fe5b906000526020600020906006020160010160028381548110151561114957fe5b906000526020600020906006020160050154828054600181600116156101000203166002900480601f0160208091040260200160405190810160405280929190818152602001828054600181600116156101000203166002900480156111f05780601f106111c5576101008083540402835291602001916111f0565b820191906000526020600020905b8154815290600101906020018083116111d357829003601f168201915b50505050509250818054600181600116156101000203166002900480601f01602080910402602001604051908101604052809291908181526020018280546001816001161561010002031660029004801561128c5780601f106112615761010080835404028352916020019161128c565b820191906000526020600020905b81548152906001019060200180831161126f57829003601f168201915b50505050509150935093509350506112a1565b505b909192565b6060806060600080600080600360008981526020019081526020016000209050806000018160010182600201836003015484600401548560050154858054600181600116156101000203166002900480601f0160208091040260200160405190810160405280929190818152602001828054600181600116156101000203166002900480156113765780601f1061134b57610100808354040283529160200191611376565b820191906000526020600020905b81548152906001019060200180831161135957829003601f168201915b50505050509550848054600181600116156101000203166002900480601f0160208091040260200160405190810160405280929190818152602001828054600181600116156101000203166002900480156114125780601f106113e757610100808354040283529160200191611412565b820191906000526020600020905b8154815290600101906020018083116113f557829003601f168201915b50505050509450838054600181600116156101000203166002900480601f0160208091040260200160405190810160405280929190818152602001828054600181600116156101000203166002900480156114ae5780601f10611483576101008083540402835291602001916114ae565b820191906000526020600020905b81548152906001019060200180831161149157829003601f168201915b505050505093509650965096509650965096505091939550919395565b60016020528060005260406000206000915054906101000a900460ff1681565b60008033905060011515600160003373ffffffffffffffffffffffffffffffffffffffff1673ffffffffffffffffffffffffffffffffffffffff16815260200190815260200160002060009054906101000a900460ff16151514156115535760019150611558565b600091505b5090565b60028181548110151561156b57fe5b9060005260206000209060060201600091509050806000018054600181600116156101000203166002900480601f0160208091040260200160405190810160405280929190818152602001828054600181600116156101000203166002900480156116175780601f106115ec57610100808354040283529160200191611617565b820191906000526020600020905b8154815290600101906020018083116115fa57829003601f168201915b505050505090806001018054600181600116156101000203166002900480601f0160208091040260200160405190810160405280929190818152602001828054600181600116156101000203166002900480156116b55780601f1061168a576101008083540402835291602001916116b5565b820191906000526020600020905b81548152906001019060200180831161169857829003601f168201915b505050505090806002018054600181600116156101000203166002900480601f0160208091040260200160405190810160405280929190818152602001828054600181600116156101000203166002900480156117535780601f1061172857610100808354040283529160200191611753565b820191906000526020600020905b81548152906001019060200180831161173657829003601f168201915b5050505050908060030154908060040154908060050154905086565b6000602052806000526040600020600091509050806000018054600181600116156101000203166002900480601f01602080910402602001604051908101604052809291908181526020018280546001816001161561010002031660029004801561181b5780601f106117f05761010080835404028352916020019161181b565b820191906000526020600020905b8154815290600101906020018083116117fe57829003601f168201915b505050505090806001018054600181600116156101000203166002900480601f0160208091040260200160405190810160405280929190818152602001828054600181600116156101000203166002900480156118b95780601f1061188e576101008083540402835291602001916118b9565b820191906000526020600020905b81548152906001019060200180831161189c57829003601f168201915b5050505050908060020154905083565b828054600181600116156101000203166002900490600052602060002090601f016020900481019282601f1061190a57805160ff1916838001178555611938565b82800160010185558215611938579182015b8281111561193757825182559160200191906001019061191c565b5b50905061194591906119f2565b5090565b828054600181600116156101000203166002900490600052602060002090601f016020900481019282601f1061198257805485556119bf565b828001600101855582156119bf57600052602060002091601f016020900482015b828111156119be5782548255916001019190600101906119a3565b5b5090506119cc91906119f2565b5090565b6060604051908101604052806060815260200160608152602001600081525090565b611a1491905b80821115611a105760008160009055506001016119f8565b5090565b9056fea165627a7a72305820438b0bff6da340cc9f11846897388eecbafc400283104a791d2791c31e71659f0029",
  "source": "pragma solidity ^0.5.0;\n\ncontract donor{\n    struct donor_detail{\n        string name;\n        string bloodg;\n        string donated_to;\n        uint blood_qty;\n        bytes32 unique_id;\n        uint contact;\n    }\n    struct hospital_detail{\n        string hname;\n        string addr;\n        uint cont;\n    }\n    mapping(address=>hospital_detail) public hospital_details;\n    mapping(address=>bool) public verify_hospital;\n    donor_detail[] public donor_details;\n    modifier onlyOwner(){\n        address _customerAddress = msg.sender;\n    _;\n    }\n    mapping(bytes32 => donor_detail) id_donor_detail;\n    function submit (string memory _name,string memory _bloodg, string memory _donated_to, uint _blood_qty,uint _contact) onlyOwner()  public returns(bytes32){\n        \n        bytes32 unique_id=keccak256(abi.encodePacked(_name,_bloodg,_contact));\n        donor_detail storage set_donor= id_donor_detail[unique_id];\n        set_donor.name =_name;\n        set_donor.bloodg= _bloodg;\n        set_donor.donated_to= _donated_to;\n        set_donor.blood_qty=_blood_qty;\n        set_donor.contact= _contact;\n        set_donor.unique_id=unique_id;\n        donor_details.push(set_donor);\n    } \n    function get_unique_id(string memory _name,string memory _bloodg,uint _contact) pure public returns(bytes32){\n        bytes32 unique_id=keccak256(abi.encodePacked(_name,_bloodg,_contact));\n        return unique_id;\n    }\n  \n    function enter_unique_id(bytes32 _unique_id)  view public returns(string memory , string memory, string memory,uint, bytes32, uint){\n        donor_detail storage donor_d = id_donor_detail[_unique_id];\n        return (donor_d.name, donor_d.bloodg, donor_d.donated_to, donor_d.blood_qty, donor_d.unique_id, donor_d.contact);\n    }\n    function get_donors() view public returns(string memory,string memory,uint){\n      \n       for(uint i=0;i<donor_details.length;i++)\n       return (donor_details[i].name, donor_details[i].bloodg, donor_details[i].contact);\n    }\n    function enter_hospital() onlyOwner view public returns(bool){\n        if(verify_hospital[msg.sender]==true)\n        return true;\n        else\n        return false;\n    }\n    function set_hospital_details(string memory _hname,string memory _addr,uint _cont)  public{\n        hospital_detail memory hospital_d = hospital_details[msg.sender];\n        hospital_d.hname=_hname;\n        hospital_d.addr=_addr;\n        hospital_d.cont=_cont;\n        verify_hospital[msg.sender]=true;\n    }\n    \n}",
  "sourcePath": "/home/neeraja/Desktop/pro/blood_pool/contracts/donor.sol",
  "compiler": {
    "name": "solc",
    "version": "0.5.0+commit.1d4f565a.Emscripten.clang"
  },
  "schemaVersion": "3.0.1",
  "updatedAt": "2019-04-10T12:28:10.507Z",
  "devdoc": {
    "methods": {}
  },
  "userdoc": {
    "methods": {}
  }
}